:020000040800F2
:10000000400F0020090200080D0200080F0200083E
:100010001102000813020008150200080000000089
:1000200000000000000000000000000017020008AF
:100030001902000800000000CD0100084506000874
:100040001F0200081F0200081F0200081F0200080C
:100050001F0200081F0200081F0200081F020008FC
:100060001F0200081F0200081F0200081F020008EC
:100070001F0200081F0200081F0200081F020008DC
:100080001F0200081F0200081F0200081F020008CC
:100090001F0200081F0200081F0200081F020008BC
:1000A0001F0200081F0200081F0200081F020008AC
:1000B0001F0200081F0200081F0200081F0200089C
:1000C0001F0200081F0200081F0200081F0200088C
:1000D0001F0200088D0600081F0200081F0200080A
:1000E0001F0200081F0200081F0200081F0200086C
:1000F0001F0200081F0200081F0200081F0200085C
:100100001F0200081F0200081F0200081F0200084B
:100110001F0200081F0200081F0200081F0200083B
:100120001F0200081F0200081F0200081F0200082B
:1001300000F002F800F03AF80AA090E8000C8244BF
:100140008344AAF10107DA4501D100F02FF8AFF29C
:10015000090EBAE80F0013F0010F18BFFB1A43F0A5
:1001600001031847E00C0000000D0000103A24BF06
:1001700078C878C1FAD8520724BF30C830C144BF0C
:1001800004680C607047000000230024002500264E
:10019000103A28BF78C1FBD8520728BF30C148BFEA
:1001A0000B6070471FB51FBD10B510BD00F088F87B
:1001B0001146FFF7F7FF00F07BFA00F0BAF803B43E
:1001C000FFF7F2FF03BC00F062FA000072B6EFF333
:1001D000098058B1EFF3098020E9F00F0949096857
:1001E000086000B500F0A8FA5DF804EB0548006867
:1001F0000068B0E8F00F80F309884EF0040E62B694
:10020000704700BF0400002008480047FEE7FEE7F3
:10021000FEE7FEE7FEE7FEE7FEE7FEE7FEE7FEE7B6
:1002200003480449044A054B7047000031010008A7
:1002300040090020400F0020400B0020400B002010
:10024000704700000FB4044910B503AA029800F0EB
:1002500009F810BC5DF814FB0000002070477047DF
:1002600070477047074B70B50D467B4400F011F89E
:100270000446284600F020F810B14FF0FF3070BD62
:10028000204670BD2704000001694A1C02610878FD
:10029000704700B58FB0CDE90131002105910549C6
:1002A0007944CDE903101146684600F02EF80FB0EE
:1002B00000BD0000E5FFFFFF007B00F080007047FD
:1002C000754600F03FF8AE4605006946534620F0FB
:1002D0000700854618B020B5FFF7A2FFBDE8204013
:1002E0004FF000064FF000074FF000084FF0000BF2
:1002F00021F00701AC46ACE8C009ACE8C009ACE8A5
:10030000C009ACE8C0098D4670472DE9F0410646AA
:100310000024D6E90170F5688046304603E0414686
:10032000B847641C3046A8470028F8D12046BDE8ED
:10033000F08110B50446AFF300802046BDE81040C0
:10034000FFF73DBF00487047DC080020F0B50446C9
:100350000D4602EB83012F480088082801DD0020AC
:10036000F0BD4FF08076081F01460660081F014669
:1003700004604FF01436081F014606604FF0123635
:10038000081F014606604FF00336081F014606604D
:100390004FF00236081F014606607610081F01461E
:1003A0000660081F014605604FF01136081F014620
:1003B00006604FF01036081F014606604FF0093600
:1003C000081F014606604FF00836081F0146066008
:1003D0004FF00736081F014606604FF00636081F2B
:1003E000014606604FF00536081F014606604FF0D3
:1003F0000436081F014606600748064E368840F856
:10040000361004480088034E3688761C014F3E8023
:10041000A6E700000A0000201C08002010B500F02C
:1004200007F810BD10B500F01DF900F0BBF810BDC5
:1004300010B52023064A00210648FFF787FF06482B
:10044000064908604FF0000484F3098810BD0000DD
:100450005C0800200D0800081C0800200400002093
:1004600000B5002015490861C860142048610020CB
:100470008861C8610846006840F0010008600846CD
:1004800040680F4908400D494860084600680D491A
:1004900008400A4908600846006820F48020086087
:1004A0000846406820F4FE00486000208860002173
:1004B0004FF0006000F058F800BD0000001002404E
:1004C0000000FFF8FFFFF6FE2DE9F04107468846E1
:1004D00014461D46284600F033F8C5F1040007FA1B
:1004E00000F60F20284100EA0800064306F00F0638
:1004F000E21704EBD2625211920002F1E022D2F82C
:1005000000212146E31704EBD3635B11A4EB431CEA
:10051000012303FA0CF31A432046E31704EBD363D9
:100520005B119B0003F1E023C3F800210348005D49
:1005300040EA061001490855BDE8F08100E400E0FA
:100540000146072323EA01021202054B18684FF601
:10055000FF031840034B18431043014B18607047CA
:100560000CED00E00000FA05024A0A400243024B8B
:100570001A60704780FFFF1F08ED00E010B50028EB
:1005800007DA0A07140E054A00F00F031B1FD454A4
:1005900003E00A07130E024A135410BD18ED00E0E1
:1005A00000E400E010B5FF216FF00100FFF7E6FF67
:1005B00010BD000030B504460025FFF751FF1F486D
:1005C000006840F480301D49086000BF1B48006887
:1005D000400C0028FAD04FF4806018494860A01EF3
:1005E000C4B20846406840EA844048600846406813
:1005F00040F4803048601248006840F032001049F2
:1006000008600E48006840F080700C49086000BF28
:100610000A480068400E0028FAD00848406840F0B8
:1006200002000649486005E004484068C0F38705B9
:1006300005F00305022DF7D130BD00000010024087
:100640000020024000B505480068401C03490860CE
:100650000348007808B100F0B3F800BD1400002092
:100660001000002010B508484FF0E021486100203C
:1006700088610846006940F0030008610F214FF0CF
:10068000FF30FFF77BFF10BD8F5F01007047014611
:1006900000BF704700BF054A128802F04002002ADE
:1006A000F9D0C2B2014B1B1D1A80704700380140BF
:1006B00000BF0920FFF77EFF4FF41651482000F0DD
:1006C000AFF8FFF7ABFE4FF48073084A00210848EB
:1006D000FFF73CFE4FF48073064A00210648FFF7FF
:1006E00035FEFFF79FFE00BFFEE700001C00002064
:1006F000D50700081C040020F107000810B50446C7
:100700004FF47A7104FB01F000F002F810BD000014
:1007100010B5024642F21070B2FBF0F304480068D4
:10072000C41804480068446000F04AF810BD000096
:10073000140000200400002000201C490988491EE4
:100740001B4A128891420EDC18490988022903DBF2
:100750000121174A11800BE00021154A118015492B
:10076000154A1160704712490988491C104A1180C6
:100770001049114A11600E49088811E00D4A02EB38
:10078000C0014A6822B10D4B4A681B689A4206D8DC
:1007900000224A60084A1160054B1880E2E7401CBD
:1007A000024909888842E9DB00BFDBE70A00002034
:1007B000080000201C080020040000201400002075
:1007C0000348006840F0805001490860704700000D
:1007D00004ED00E000BF04A0FFF734FD4FF47A7091
:1007E000FFF78CFFF7E700007461736B310D0A00AF
:1007F00000BF04A0FFF726FD4FF4FA60FFF77EFF6D
:10080000F7E700007461736B320D0A0000BF034804
:100810000068401C01490860F9E70000180000204A
:100820002DE9F05F05460E46300100F0ABF9814638
:100830002E4905FB01F000F0A5F98246494600F07B
:10084000BFF80746384600F07DF984B2204600F034
:1008500099F98346394600F075FA82464FF0834194
:1008600000F0A4F9814600F06DF980464FF6FF7064
:1008700000EA041404EB080084B21D48806940F0CB
:1008800004001B4988610846806940F48040886103
:100890001848006820F47F60164908600846006820
:1008A00040F40B6008601248C06840F48040104972
:1008B000C8600846C06820F48040C8600E480480C4
:1008C000001D008842F20C0108430B49091D0880F5
:1008D0000846008840F020000880022325220321DA
:1008E0000846FFF7F1FDBDE8F09F000040420F0011
:1008F00000100240040801400838014090EA010F4E
:1009000048BF81F0004100F12E82421A3CBF801A9C
:1009100089184FEAD0524FF07F4C1CEA410FA2EBEE
:10092000D15318BF9CEA026F00F03B804FF0004C9F
:100930004CEA00204CEA012121FA03FC10EB0C0CDC
:100940001ED202F1FF325FEA1C2040EBC25038BFDA
:1009500070471CF07F0F4FEA400C18BFBCF17F4F6F
:1009600038BF7047C3F12003994008BF20F0010051
:10097000BCF17F4F38BF7047A0F1C04000F0DDB937
:100980004FEA3C00000A40EBC25028BF1CF0FF0FAA
:100990004FEA400CE6D018BFBCF17F4F38BF70471C
:1009A000EAE79CEA026F05D010EA5C0F08BF00F08E
:1009B0000040704710B500F07AF900BF64FBBE3EFE
:1009C0004FF47F0C1CEAD0121EBF1CEAD11392EA2E
:1009D0000C0F93EA0C0F00F0858090EA010F48BFDE
:1009E00042F4807240F4000C41F400002CF07F418E
:1009F00020F07F4000B58142A2EB03020FF2081CF9
:100A0000ACEB504EC0F100009EF800E04FEA4E0EF5
:100A100000FB0EFC38BF49004FEA2C1C02F5FA021D
:100A20000CFB0EF34FEACE1E4FEA112C4FEAC12108
:100A30000EEB635E42EB22420EFB0CFC4FEA1C53B2
:100A400000FB03114FEA112C4FEA01310EFB0CFCA5
:100A50004FEADC4C00FB0C11C14228BF09184CEBDB
:100A600003335DF804EB10EB410143EBC250B2F5E8
:100A70007C0F38BF704729D512F0F00F1CBF00F172
:100A8000C04000F0004070470081828384858687E3
:100A900088898B8C8D8E8F919293959697999A9C3D
:100AA0009D9FA0A2A3A5A7A8AAACAEB0B2B3B5B7AC
:100AB000B9BCBEC0C2C5C7C9CCCED1D4D7D9DCDF82
:100AC000E2E6E9ECF0F3F7FAFE0000004FEA400C32
:100AD0000CF1807CBCF17E4F28BF7047B0F1C04064
:100AE00000F02BB990EA010F0CEAD11348BF42F491
:100AF0008072624538BF634507D213F47F0F16D06A
:100B000080EA010000F00040704710B500F0CFF817
:100B1000097EFC3E00F005B880EA010000F00040CC
:100B2000704780EA010000F0004000F006B912F4BE
:100B30007F0F04BF0248704780EA010000F0FDB853
:100B40000000C07FC10DD1F19E0206DB4FEA0023F9
:100B500043F0004323FA02F07047004207D54FEA02
:100B60004001B1F1FE4F02D24FF00000704710B5C6
:100B700000F09DF849922480002070476FEA200021
:100B800070470000B0FA80F310FA03F2C3F19D033E
:100B90000AD0D90501EB1220530638BF704700F187
:100BA000010008BF20F00100704700004FF47F0CE7
:100BB0001CEAD0121EBF1CEAD11392EA0C0F93EA72
:100BC0000C0F00F0478090EA010F48BF42F480729A
:100BD0004FF0004C4CEA00204CEA012102EB0302EA
:100BE000A0FB0113A2F50002002918BF43F0010386
:100BF0005B0028BF4FEA330342EB22425FEA132C2B
:100C00004CEBC2502EBFBCEB436FB2F57C0F70476C
:100C10004FEA036CBCF1004F08BF20F00100B2F5B1
:100C20007C0F38BF70470BD582F0FF0212F5803F72
:100C3000C8BF704700F1C040D8BF00F00040704707
:100C400000F5000C5FEA4C0C48BF7047B0F1C040A3
:100C500000F073B890EA010F0CEAD11348BF42F4D8
:100C60008072624538BF634504D280EA010000F01B
:100C70000040704710B500F01AF800BF8900013E2F
:100C800000F007B800F009B85FEA410C5FEA1C6C9D
:100C900008D080EA010000F050B85FEA400C5FEA3B
:100CA0001C6CF6D14FF00040A0F5800070470EF1AB
:100CB000020E2EF0030E5EF8044B244204D44FEAD9
:100CC0004102B2F17F4F11D84FEA4003B3F17F4F99
:100CD0000CD80ED14FEAD07CB2F17F4F0CEB4C0C0C
:100CE0000CF1020C08BF4CEBD17C04E04FF0080C77
:100CF00001E04FEAD17C0CEB4C0324FA03F404F03E
:100D00000704B4F1040C06D20EEB840CBDE81040CD
:100D10004CF0010C6047DFE80CF0070802024FF0CE
:100D20000040A0F5800010BD0846420018BFD2F177
:100D3000807288BF00F0004010BDFF2141EAD05012
:100D4000C005704780F0004090EA010F7FF5DDADEF
:100D500081F0004100F007B890EA010F48BF81F030
:100D600000413FF5D2AD421A04D882F00042A0EB18
:100D7000020011444FEAD0524FF07F4C1CEA410F61
:100D8000A2EBD15318BF9CEA026F4AD04FF0004C3F
:100D90004CEA00204CEA012121FA03FCB0EB0C0CD8
:100DA0000FD412F0FE0F36D05FEA4C001DD50012B2
:100DB00040EBC25038BF70471CF03F0F18BF704760
:100DC0000BE0A2F101025FEA1C2040EBC25038BFE9
:100DD00070471CF07F0F18BF7047C3F12003994084
:100DE00014BF401E20F00100704780084FEA122314
:100DF00008BF7047B0FA80FCA2EB0C02CCF1280CC3
:100E000060FA0CF093EA122F04BF00EBC250704757
:100E10004FEAC3707047130A5FEADC1008BF7047DF
:100E2000F6E79CEA026F04D010EA5C0F08BF0020CE
:100E3000704710B5FFF73BFF40DFF63E81F0004002
:100E400070470000640E0008000000201C00000035
:100E50006C010008800E00081C000020240F000018
:100E600088010008000000000000000000000000F1
:100E70000900010001000000000000000000000067
:0400000508000131BD
:00000001FF
