:020000040800F2
:10000000901F0020190200081D0200081F020008AE
:100010002102000823020008250200080000000059
:10002000000000000000000000000000270200089F
:100030002902000800000000DD010008290C00086A
:100040002F0200082F0200082F0200082F020008CC
:100050002F0200082F0200082F0200082F020008BC
:100060002F0200082F0200082F0200082F020008AC
:100070002F0200082F0200082F0200082F0200089C
:100080002F0200082F0200082F0200082F0200088C
:100090002F0200082F0200082F0200082F0200087C
:1000A0002F0200082F0200082F0200082F0200086C
:1000B0002F0200082F0200082F0200082F0200085C
:1000C0002F0200082F0200082F0200082F0200084C
:1000D0002F020008710C00082F0200082F020008F0
:1000E0002F0200082F0200082F0200082F0200082C
:1000F0002F0200082F0200082F0200082F0200081C
:100100002F0200082F0200082F0200082F0200080B
:100110002F0200082F0200082F0200082F020008FB
:100120002F0200082F0200082F0200082F020008EB
:1001300000F002F800F042F80AA090E8000C8244B7
:100140008344AAF10107DA4501D100F037F8AFF294
:10015000090EBAE80F0013F0010F18BFFB1A43F0A5
:1001600001031847A0140000C0140000103A24BF77
:1001700078C878C1FAD8520724BF30C830C144BF0C
:1001800004680C607047000000230024002500264E
:10019000103A28BF78C1FBD8520728BF30C148BFEA
:1001A0000B607047642900F08980782900F0C280D4
:1001B000002070471FB51FBD10B510BD00F02AFA12
:1001C0001146FFF7F7FF00F089FD00F048FA03B48D
:1001D000FFF7F2FF03BC00F053FD000072B6EFF32F
:1001E000098058B1EFF3098020E9F00F0949096847
:1001F000086000B500F06AFE5DF804EB0548006891
:100200000068B0E8F00F80F309884EF0040E62B683
:10021000704700BF0400002008480047FEE7FEE7E3
:10022000FEE7FEE7FEE7FEE7FEE7FEE7FEE7FEE7A6
:1002300003480449044A054B704700003101000897
:1002400090190020901F0020901B0020901B002080
:10025000704700000FB4044910B503AA029800F0DB
:10026000ABF910BC5DF814FB0000002070B504462B
:1002700085690068C10601D5302600E02026C00748
:1002800007D070BDD4E9012130469047206A401C58
:1002900020626D1EF6D570BD70B504468569007884
:1002A000C00707D170BDD4E9012120209047206A02
:1002B000401C20626D1EF6D570BD00002DE9F04196
:1002C0000646002410687529314616A510D0AFF3F4
:1002D0000080002802DA404213A507E031688A074F
:1002E00001D512A502E0490704D511A5012401E0BA
:1002F000AFF3008000210A2206F1240709E0B0FBD9
:10030000F2FCB0FBF2F302FB1C00303078541846CC
:10031000491C0028F3D123462A463046BDE8F04167
:1003200000F0F1B8000000002D0000002B000000DC
:100330002000000070B504460D4621461068AFF35A
:1003400000802188090502D50F4A7A4402E00E4A4E
:100350007A440E32002104F1240305E000F00F0678
:100360000009965D5E54491C0028F7D120780023CF
:10037000000704D5702D02D009B1022311322046A6
:10038000BDE8704000F0BFB88E1200002DE9F047C4
:100390004FF0000A89460446C0F820A02046E168D4
:1003A0008847002876D0252806D0D4E90121904737
:1003B000206A401C2062F1E7E1682046002588475A
:1003C000C4F81CA006460027C4F818A02A2E09D09D
:1003D000304600F04EFC38B304EB8708303EC8F8D6
:1003E000186019E059F8041B204604EB870291615C
:1003F000E1688847012F064618D1E069002820DA15
:1004000025F020051DE0D8F8180000EB800006EB71
:1004100040003038C8F818002046E1688847064692
:1004200000F027FC0028EED1012F0AD02E2E08D193
:100430002046E16888477F1C0646022F45F02005CC
:10044000C4DBA069002803DA404245F00105A06141
:10045000E80701D025F01005B6B1A6F14100192832
:1004600002D8203645F400654A46314620462560CC
:100470004D46FFF797FE58B1012806D0ED1D25F037
:10048000070000F1080989E704E005F1040985E7A0
:1004900030468AE7206ABDE8F08710B5203AC0F000
:1004A0000B80B1E81850203AA0E81850B1E8185075
:1004B000A0E81850BFF4F5AF5FEA027C24BFB1E8B2
:1004C0001850A0E8185044BF18C918C0BDE8104023
:1004D0005FEA827C24BF51F8043B40F8043B08BF2C
:1004E0007047D20728BF31F8023B48BF11F8012BF3
:1004F00028BF20F8023B48BF00F8012B7047704727
:100500007047704770472DE9F0470D46994692466F
:10051000044600F124080168880604D5E06921F04A
:100520001001216000E00120A84201DD471B00E02E
:100530000027A1697A1902EB0900081AA061207846
:10054000C00602D42046FFF791FE002608E0D4E959
:1005500001211AF806009047206A401C761C206290
:100560004E45F4DB2078C0060AD52046FFF77EFE14
:1005700006E0D4E9012130209047206A401C206227
:10058000381EA7F10107F4DC07E0D4E9012118F8CF
:1005900005009047206A401C2062281EA5F1010535
:1005A000F3DC2046FFF778FE2078000602D5022013
:1005B000BDE8F0870120FBE7074B70B50D467B4493
:1005C00000F011F80446284600F020F810B14FF072
:1005D000FF3070BD204670BDC706000001694A1C8F
:1005E00002610878704700B58FB0CDE90131002174
:1005F000059105497944CDE9031011466846FFF796
:10060000C5FE0FB000BD0000E5FFFFFF007B00F05E
:1006100080007047754600F02BF8AE46050069462D
:10062000534620F00700854618B020B5FFF700FEBE
:10063000BDE820404FF000064FF000074FF00008E3
:100640004FF0000B21F00701AC46ACE8C009ACE864
:10065000C009ACE8C009ACE8C0098D46704710B5C8
:100660000446AFF300802046BDE81040FFF7AFBD61
:10067000004870472C190020F0B504460D4602EBE7
:10068000830135480088082801DD0020F0BD4FF0C7
:100690008076081F01460660081F014604604FF07F
:1006A0001436081F014606604FF01236081F014637
:1006B00006604FF00336081F014606604FF0023611
:1006C000081F014606607610081F01460660081FD5
:1006D000014605604FF01136081F014606604FF0D5
:1006E0001036081F014606604FF00936081F014604
:1006F00006604FF00836081F014606604FF00736C7
:10070000081F014606604FF00636081F01460660C6
:100710004FF00536081F014606604FF00436081FEB
:10072000014606600D480C4E368800EB061042600C
:100730000A48094E368800EB061001600748064E4D
:10074000368800EB0610836003480088024E368826
:10075000761C014F3E8099E70A0000202008002007
:1007600010B500F09FFA00F007F810BD10B500F0CA
:100770006BFA00F0FFF810BD10B51E23084A0021E7
:100780000848FFF779FF08480849086000F0F4FAC4
:1007900007A0FFF75FFD4FF0000484F3098810BD48
:1007A000A0080020910F000820080020040000206D
:1007B00069646C65207461736B2068617320637277
:1007C00065617465640D0A0000B500201549086173
:1007D000C8601420486100208861C861084600682C
:1007E00040F001000860084640680F4908400D4984
:1007F0004860084600680D4908400A4908600846F4
:10080000006820F4802008600846406820F4FE005C
:1008100048600020886000214FF0006000F058F828
:1008200000BD0000001002400000FFF8FFFFF6FED0
:100830002DE9F0410746884614461D46284600F03B
:1008400033F8C5F1040007FA00F60F20284100EA4A
:100850000800064306F00F06E21704EBD2625211BD
:10086000920002F1E022D2F800212146E31704EBC6
:10087000D3635B11A4EB431C012303FA0CF31A436B
:100880002046E31704EBD3635B119B0003F1E023E5
:10089000C3F800210348005D40EA061001490855ED
:1008A000BDE8F08100E400E00146072323EA0102ED
:1008B0001202054B18684FF6FF031840034B18430C
:1008C0001043014B186070470CED00E00000FA0582
:1008D000024A0A400243024B1A60704780FFFF1F22
:1008E00008ED00E010B5002807DA0A07140E054AE3
:1008F00000F00F031B1FD45403E00A07130E024A33
:10090000135410BD18ED00E000E400E0F0B502461D
:1009100016480068014625E0087A08BB02F1140574
:100920000868431B002B15DB0A6001200872142B9A
:1009300010D94F687E190E4FB819A3F1140707603C
:1009400006F11407476000270772C1600F6907614D
:10095000086100BF48681430054E84192046F0BD78
:10096000086901460029D7D100BFF8E71C00002024
:100970001809002010B5FF216FF00100FFF7B2FF4A
:1009800010BD000010B51848046818A0FFF762FCFD
:1009900024A0FFF75FFC142130A0FFF75BFC36A01A
:1009A000FFF758FC17E021463CA0FFF753FC217AE3
:1009B00041A0FFF74FFC47A02168FFF74BFC4CA07C
:1009C0006168FFF747FC51A02169FFF743FC2AA0AB
:1009D000FFF740FC2469002CE5D153A0FFF73AFC57
:1009E0005FA0FFF737FC10BD1C0000200D0A2A2A6B
:1009F0002A2A2A2A2A2A2A2A2A2A2A2A2A2A2A2A57
:100A00002A2A2A2A2A2A2A2A2A2A2A2A2A2A2A2A46
:100A10002A2A2A2A2A2A2A2A2A2A2A2A2A2A2A2A36
:100A20000D0A00006865617020696E666F2A2A2AC7
:100A30002A2A2A2A2A2A2A2A2A2A2A2A2A2A2A2A16
:100A40002A2A2A2A2A2A2A2A2A2A2A2A2A2A2A2A06
:100A50002A2A2A2A2A2A0D0A0000000073697A65C8
:100A60006F66206D656D6F72795F6E6F6465203A99
:100A70002025640D0A0000002D2D2D2D2D2D2D2D4E
:100A80002D2D2D2D2D2D2D2D2D2D2D2D2D2D2D2D96
:100A90002D2D2D2D2D7C0D0A000000006E6F64653C
:100AA00020706F696E74657220203A2025385820B6
:100AB000202020207C0D0A006E6F64652075736510
:100AC0006420202020203A20253864202020202067
:100AD0007C0D0A006E6F64652073697A65202020A2
:100AE00020203A2025386420202020207C0D0A0078
:100AF0006E6F6465206F66667365742020203A20EF
:100B000025386420202020207C0D0A006E6F64654B
:100B1000206E65787420202020203A202538582027
:100B2000202020207C0D0A006865616F20656E64BE
:100B30002A2A2A2A2A2A2A2A2A2A2A2A2A2A2A2A15
:100B40002A2A2A2A2A2A2A2A2A2A2A2A2A2A2A2A05
:100B50002A2A2A2A2A2A2A2A2A2A0D0A00000000DA
:100B60002A2A2A2A2A2A2A2A2A2A2A2A2A2A2A2AE5
:100B70002A2A2A2A2A2A2A2A2A2A2A2A2A2A2A2AD5
:100B80002A2A2A2A2A2A2A2A2A2A2A2A2A2A2A2AC5
:100B90002A2A0D0A0000000030B504460025FFF7A0
:100BA00013FE1F48006840F480301D49086000BFF4
:100BB0001B480068400C0028FAD04FF480601849A8
:100BC0004860A01EC4B20846406840EA84404860BD
:100BD0000846406840F4803048601248006840F0A1
:100BE0003200104908600E48006840F080700C49DF
:100BF000086000BF0A480068400E0028FAD0084884
:100C0000406840F002000649486005E0044840683A
:100C1000C0F3870505F00305022DF7D130BD0000B4
:100C2000001002400020024000B505480068401C4A
:100C3000034908600348007808B100F08BF900BD53
:100C4000140000201000002010B508484FF0E021EB
:100C50004861002088610846006940F0030008618F
:100C60000F214FF0FF30FFF73DFE10BD8F5F0100F9
:100C7000704730380A2801D20120704700207047A1
:100C8000014600BF7047000000BF054A128802F00D
:100C90004002002AF9D0C2B2014B1B1D1A807047D6
:100CA0000038014010B50B480B4908604FF48050E4
:100CB0000968086000200849096848600649096811
:100CC000087205490968C860034909680861FFF7A7
:100CD00059FE10BD180900201C0000200920FFF754
:100CE0005BFF4FF41651482000F05CF9FFF738FD28
:100CF0004FF480730D4A00210D48FFF7BDFC4FF4FF
:100D000080730C4A00210C48FFF7B6FC1020FFF757
:100D1000FDFD4020FFF7FAFD8020FFF7F7FDFFF70C
:100D200031FEFFF723FD00BFFEE70000200000209A
:100D3000690F000820040020850F000810B5044644
:100D40004FF47A7104FB01F000F002F810BD0000CE
:100D500010B5024642F21070B2FBF0F3044800688E
:100D6000C41804480068C46000F0F4F810BD000026
:100D7000140000200400002010B50F48006800682F
:100D80000D4909684968401A84100CA0FFF762FAFF
:100D900018A0FFF75FFA08480068416823A0FFF732
:100DA00059FA214627A0FFF755FA2CA0FFF752FA6F
:100DB00038A0FFF74FFA10BD040000200D0A2A2AC0
:100DC0002A2A2A2A2A2A2A2A2A2A2A2A2A2A2A2A83
:100DD0002A2A2A2A2A2A2A2A2A2A2A2A2A2A2A2A73
:100DE0002A2A2A2A2A2A2A2A2A2A2A2A2A2A2A2A63
:100DF0000D0A00002A2A2A2A2A2A2A2A2A2A2A2AE4
:100E00002A2A2A2A2A2A2A7461736B20696E666F3D
:100E10002A2A2A2A2A2A2A2A2A2A2A2A2A2A2A2A32
:100E20002A2A2A2A2A2A0D0A000000000D0A7374B1
:100E300061636B20626F74746F6D203A2025580DCA
:100E40000A000000617661696C61626C65207370F4
:100E5000616365203A2025640D0A00002A2A2A2AA7
:100E60002A2A2A2A2A2A2A2A2A2A2A2A2A2A2A7498
:100E700061736B20656E642A2A2A2A2A2A2A2A2A62
:100E80002A2A2A2A2A2A2A2A2A2A2A2A2A2A0D0AFF
:100E9000000000002A2A2A2A2A2A2A2A2A2A2A2A5A
:100EA0002A2A2A2A2A2A2A2A2A2A2A2A2A2A2A2AA2
:100EB0002A2A2A2A2A2A2A2A2A2A2A2A2A2A2A2A92
:100EC0002A2A2A2A2A2A0D0A0D0A000000201C4973
:100ED0000988491E1B4A128891420EDC184909886C
:100EE000022903DB0121174A11800BE00021154A7A
:100EF00011801549154A1160704712490988491C2B
:100F0000104A11801049114A11600E49088811E0F9
:100F10000D4A02EB0011CA6822B10D4BCA681B686A
:100F20009A4206D80022CA60084A1160054B188010
:100F3000E2E7401C024909888842E9DB00BFDBE7A1
:100F40000A000020080000202008002004000020E3
:100F5000140000200348006840F0805001490860F8
:100F60007047000004ED00E086B01422044901A897
:100F7000FFF793FA00BF4FF47A70FFF7DFFEFAE74E
:100F8000C815000800BF4FF4FA60FFF7D7FEFAE774
:100F900000BF03480068401C01490860F9E70000F1
:100FA000180000202DE9F05F05460E46300100F0E4
:100FB000ABF981462E4905FB01F000F0A5F9824608
:100FC000494600F0BFF80746384600F07DF984B284
:100FD000204600F099F98346394600F075FA8246BA
:100FE0004FF0834100F0A4F9814600F06DF980468E
:100FF0004FF6FF7000EA041404EB080084B21D48A9
:10100000806940F004001B4988610846806940F40B
:10101000804088611848006820F47F6016490860A5
:101020000846006840F40B6008601248C06840F44D
:1010300080401049C8600846C06820F48040C860FD
:101040000E480480001D008842F20C0108430B4941
:10105000091D08800846008840F02000088002230F
:10106000252203210846FFF7E3FBBDE8F09F0000BF
:1010700040420F00001002400408014008380140BF
:1010800090EA010F48BF81F0004100F12E82421A20
:101090003CBF801A89184FEAD0524FF07F4C1CEAAF
:1010A000410FA2EBD15318BF9CEA026F00F03B80C6
:1010B0004FF0004C4CEA00204CEA012121FA03FCDD
:1010C00010EB0C0C1ED202F1FF325FEA1C2040EB49
:1010D000C25038BF70471CF07F0F4FEA400C18BF5A
:1010E000BCF17F4F38BF7047C3F12003994008BF60
:1010F00020F00100BCF17F4F38BF7047A0F1C04025
:1011000000F0DDB94FEA3C00000A40EBC25028BFB6
:101110001CF0FF0F4FEA400CE6D018BFBCF17F4F28
:1011200038BF7047EAE79CEA026F05D010EA5C0F0F
:1011300008BF00F00040704710B500F07AF900BF1A
:1011400064FBBE3E4FF47F0C1CEAD0121EBF1CEAAB
:10115000D11392EA0C0F93EA0C0F00F0858090EA0D
:10116000010F48BF42F4807240F4000C41F40000CB
:101170002CF07F4120F07F4000B58142A2EB0302BA
:101180000FF2081CACEB504EC0F100009EF800E0DE
:101190004FEA4E0E00FB0EFC38BF49004FEA2C1CF4
:1011A00002F5FA020CFB0EF34FEACE1E4FEA112CA9
:1011B0004FEAC1210EEB635E42EB22420EFB0CFCB8
:1011C0004FEA1C5300FB03114FEA112C4FEA013187
:1011D0000EFB0CFC4FEADC4C00FB0C11C14228BF9B
:1011E00009184CEB03335DF804EB10EB410143EBC2
:1011F000C250B2F57C0F38BF704729D512F0F00FFE
:101200001CBF00F1C04000F00040704700818283A5
:101210008485868788898B8C8D8E8F919293959605
:1012200097999A9C9D9FA0A2A3A5A7A8AAACAEB08F
:10123000B2B3B5B7B9BCBEC0C2C5C7C9CCCED1D494
:10124000D7D9DCDFE2E6E9ECF0F3F7FAFE000000C4
:101250004FEA400C0CF1807CBCF17E4F28BF7047F8
:10126000B0F1C04000F02BB990EA010F0CEAD113A5
:1012700048BF42F48072624538BF634507D213F419
:101280007F0F16D080EA010000F00040704710B5D3
:1012900000F0CFF8097EFC3E00F005B880EA0100BE
:1012A00000F00040704780EA010000F0004000F0CC
:1012B00006B912F47F0F04BF0248704780EA0100AC
:1012C00000F0FDB80000C07FC10DD1F19E0206DB29
:1012D0004FEA002343F0004323FA02F07047004234
:1012E00007D54FEA4001B1F1FE4F02D24FF00000A6
:1012F000704710B500F09DF8499224800020704797
:101300006FEA200070470000B0FA80F310FA03F291
:10131000C3F19D030AD0D90501EB1220530638BF53
:10132000704700F1010008BF20F001007047000085
:101330004FF47F0C1CEAD0121EBF1CEAD11392EAB4
:101340000C0F93EA0C0F00F0478090EA010F48BFA2
:1013500042F480724FF0004C4CEA00204CEA01212C
:1013600002EB0302A0FB0113A2F50002002918BF43
:1013700043F001035B0028BF4FEA330342EB2242F4
:101380005FEA132C4CEBC2502EBFBCEB436FB2F59F
:101390007C0F70474FEA036CBCF1004F08BF20F090
:1013A0000100B2F57C0F38BF70470BD582F0FF0209
:1013B00012F5803FC8BF704700F1C040D8BF00F0B1
:1013C0000040704700F5000C5FEA4C0C48BF7047C6
:1013D000B0F1C04000F073B890EA010F0CEAD113ED
:1013E00048BF42F48072624538BF634504D280EA48
:1013F000010000F00040704710B500F01AF800BF7F
:101400008900013E00F007B800F009B85FEA410C1E
:101410005FEA1C6C08D080EA010000F050B85FEA77
:10142000400C5FEA1C6CF6D14FF00040A0F5800044
:1014300070470EF1020E2EF0030E5EF8044B2442AC
:1014400004D44FEA4102B2F17F4F11D84FEA400372
:10145000B3F17F4F0CD80ED14FEAD07CB2F17F4F61
:101460000CEB4C0C0CF1020C08BF4CEBD17C04E0F3
:101470004FF0080C01E04FEAD17C0CEB4C0324FA4E
:1014800003F404F00704B4F1040C06D20EEB840C50
:10149000BDE810404CF0010C6047DFE80CF0070895
:1014A00002024FF00040A0F5800010BD0846420047
:1014B00018BFD2F1807288BF00F0004010BDFF213C
:1014C00041EAD050C005704780F0004090EA010F1B
:1014D0007FF5DDAD81F0004100F007B890EA010F23
:1014E00048BF81F000413FF5D2AD421A04D882F0E6
:1014F0000042A0EB020011444FEAD0524FF07F4C63
:101500001CEA410FA2EBD15318BF9CEA026F4AD0EC
:101510004FF0004C4CEA00204CEA012121FA03FC78
:10152000B0EB0C0C0FD412F0FE0F36D05FEA4C007B
:101530001DD5001240EBC25038BF70471CF03F0F62
:1015400018BF70470BE0A2F101025FEA1C2040EBDC
:10155000C25038BF70471CF07F0F18BF7047C3F1EF
:101560002003994014BF401E20F0010070478008FE
:101570004FEA122308BF7047B0FA80FCA2EB0C02BE
:10158000CCF1280C60FA0CF093EA122F04BF00EBA8
:10159000C25070474FEAC3707047130A5FEADC100D
:1015A00008BF7047F6E79CEA026F04D010EA5C0FB0
:1015B00008BF0020704710B5FFF73BFF40DFF63E45
:1015C00081F00040704700000100000002000000B0
:1015D0000300000004000000050000003031323339
:1015E0003435363738394142434445464030580057
:1015F0003031323334353637383961626364656689
:101600004030780024160008000000202000000070
:101610006C0100084416000820000020701F000024
:101620008801000800000000000000000000000029
:10163000090001000100000000000000000000009F
:0416400000000000A6
:0400000508000131BD
:00000001FF
