:020000040800F2
:10000000780F0020110200081502000817020008EE
:10001000190200081B0200081D0200080000000071
:100020000000000000000000000000001F020008A7
:100030002102000800000000D50100085508000852
:1000400027020008270200082702000827020008EC
:1000500027020008270200082702000827020008DC
:1000600027020008270200082702000827020008CC
:1000700027020008270200082702000827020008BC
:1000800027020008270200082702000827020008AC
:10009000270200082702000827020008270200089C
:1000A000270200082702000827020008270200088C
:1000B000270200082702000827020008270200087C
:1000C000270200082702000827020008270200086C
:1000D000270200089D0800082702000827020008E0
:1000E000270200082702000827020008270200084C
:1000F000270200082702000827020008270200083C
:10010000270200082702000827020008270200082B
:10011000270200082702000827020008270200081B
:10012000270200082702000827020008270200080B
:1001300000F002F800F03FF80AA090E8000C8244BA
:100140008344AAF10107DA4501D100F034F8AFF297
:10015000090EBAE80F0013F0010F18BFFB1A43F0A5
:1001600001031847500F0000700F0000103A24BF21
:1001700078C878C1FAD8520724BF30C830C144BF0C
:1001800004680C607047000000230024002500264E
:10019000103A28BF78C1FBD8520728BF30C148BFEA
:1001A0000B607047642900F09180002070471FB5F4
:1001B0001FBD10B510BD00F083F91146FFF7F7FF22
:1001C00000F07EFB00F0A1F903B4FFF7F2FF03BCDF
:1001D00000F065FB72B6EFF3098058B1EFF30980C8
:1001E00020E9F00F09490968086000B500F0C6FB76
:1001F0005DF804EB054800680068B0E8F00F80F394
:1002000009884EF0040E62B6704700BF040000205B
:1002100008480047FEE7FEE7FEE7FEE7FEE7FEE7E9
:10022000FEE7FEE7FEE7FEE703480449044A054B04
:10023000704700003101000878090020780F002085
:10024000780B0020780B0020704700000FB40449A1
:1002500010B503AA029800F005F910BC5DF814FB74
:10026000000000202DE9F0410E46044600202062E7
:100270002046E168884730B3252805D0D4E901211C
:100280009047206A401CF2E7E16820460027884733
:10029000050018D0A5F14100192802D820354FF4E7
:1002A00000673246294620462760FFF77BFF40B1B2
:1002B000012804D0F61D26F007060836D8E7361DBB
:1002C000D6E72846DAE7206ABDE8F0812DE9F0415B
:1002D0000646002410687529314616A510D0AFF3E4
:1002E0000080002802DA404213A507E031688A073F
:1002F00001D512A502E0490704D511A5012401E0AA
:10030000AFF3008000210A2206F1240709E0B0FBC8
:10031000F2FCB0FBF2F302FB1C00303078541846BC
:10032000491C0028F3D123462A463046BDE8F04157
:1003300000F03EB8000000002D0000002B0000007F
:100340002000000010B5203AC0F00B80B1E8185032
:10035000203AA0E81850B1E81850A0E81850BFF4AF
:10036000F5AF5FEA027C24BFB1E81850A0E818504E
:1003700044BF18C918C0BDE810405FEA827C24BFA2
:1003800051F8043B40F8043B08BF7047D20728BF30
:1003900031F8023B48BF11F8012B28BF20F8023B7F
:1003A00048BF00F8012B704770477047704770478F
:1003B0002DE9F0470D4699469246044600F124087F
:1003C0000168880604D5E06921F01001216000E091
:1003D0000120A84201DD471B00E00027A1697A192E
:1003E00002EB0900081AA0612078C00602D420465A
:1003F000AFF30080002608E0D4E901211AF80600D6
:100400009047206A401C761C20624E45F4DB207821
:10041000C0060AD52046AFF3008006E0D4E90121EA
:1004200030209047206A401C2062381EA7F1010747
:10043000F4DC07E0D4E9012118F805009047206AB0
:10044000401C2062281EA5F10105F3DC2046AFF315
:1004500000802078000602D50220BDE8F087012048
:10046000FBE70000074B70B50D467B4400F011F828
:100470000446284600F020F810B14FF0FF3070BD60
:10048000204670BD3704000001694A1C02610878EB
:10049000704700B58FB0CDE90131002105910549C4
:1004A0007944CDE9031011466846FFF7DBFE0FB033
:1004B00000BD0000E5FFFFFF007B00F080007047FB
:1004C000754600F02BF8AE4605006946534620F00D
:1004D0000700854618B020B5FFF7A6FEBDE820400E
:1004E0004FF000064FF000074FF000084FF0000BF0
:1004F00021F00701AC46ACE8C009ACE8C009ACE8A3
:10050000C009ACE8C0098D46704710B50446AFF38A
:1005100000802046BDE81040FFF756BE00487047F7
:1005200014090020F0B504460D4602EB830135485E
:100530000088082801DD0020F0BD4FF08076081FFC
:1005400001460660081F014604604FF01436081F7C
:10055000014606604FF01236081F014606604FF054
:100560000336081F014606604FF00236081F014699
:1005700006607610081F01460660081F01460560E8
:100580004FF01136081F014606604FF01036081F65
:10059000014606604FF00936081F014606604FF01D
:1005A0000836081F014606604FF00736081F01464F
:1005B00006604FF00636081F014606604FF005360C
:1005C000081F014606604FF00436081F014606600A
:1005D0000D480C4E368800EB061042600A48094E62
:1005E000368800EB061001600748064E368800EB9F
:1005F0000610836003480088024E3688761C014F3F
:100600003E8099E70A0000201C08002010B500F089
:1006100007F810BD10B500F02DF900F0CBF810BDB3
:1006200010B51E23084A00210848FFF77BFF084841
:100630000849086000F086F907A0FFF707FE4FF0B1
:10064000000484F3098810BD9C080020690A000892
:100650001C0800200400002069646C65207461732C
:100660006B206861732063726561746564000000CB
:1006700000B5002015490861C860142048610020B9
:100680008861C8610846006840F0010008600846BB
:1006900040680F4908400D494860084600680D4908
:1006A00008400A4908600846006820F48020086075
:1006B0000846406820F4FE00486000208860002161
:1006C0004FF0006000F058F800BD0000001002403C
:1006D0000000FFF8FFFFF6FE2DE9F04107468846CF
:1006E00014461D46284600F033F8C5F1040007FA09
:1006F00000F60F20284100EA0800064306F00F0626
:10070000E21704EBD2625211920002F1E022D2F819
:1007100000212146E31704EBD3635B11A4EB431CD8
:10072000012303FA0CF31A432046E31704EBD363C7
:100730005B119B0003F1E023C3F800210348005D37
:1007400040EA061001490855BDE8F08100E400E0E8
:100750000146072323EA01021202054B18684FF6EF
:10076000FF031840034B18431043014B18607047B8
:100770000CED00E00000FA05024A0A400243024B79
:100780001A60704780FFFF1F08ED00E010B50028D9
:1007900007DA0A07140E054A00F00F031B1FD45492
:1007A00003E00A07130E024A135410BD18ED00E0CF
:1007B00000E400E010B5FF216FF00100FFF7E6FF55
:1007C00010BD000030B504460025FFF751FF1F485B
:1007D000006840F480301D49086000BF1B48006875
:1007E000400C0028FAD04FF4806018494860A01EE1
:1007F000C4B20846406840EA844048600846406801
:1008000040F4803048601248006840F032001049DF
:1008100008600E48006840F080700C49086000BF16
:100820000A480068400E0028FAD00848406840F0A6
:1008300002000649486005E004484068C0F38705A7
:1008400005F00305022DF7D130BD00000010024075
:100850000020024000B505480068401C03490860BC
:100860000348007808B100F0CDF800BD1400002066
:100870001000002010B508484FF0E021486100202A
:1008800088610846006940F0030008610F214FF0BD
:10089000FF30FFF77BFF10BD8F5F010070470146FF
:1008A00000BF704700BF054A128802F04002002ACC
:1008B000F9D0C2B2014B1B1D1A80704700380140AD
:1008C0000920FFF77FFF4FF41651482000F0D6F8BB
:1008D000FFF79CFE4FF48073074A00210748FFF79B
:1008E00021FE4FF48073064A00210648FFF71AFEE6
:1008F000FFF790FE00BFFEE71C000020190A000869
:100900001C040020490A000810B504464FF47A710F
:1009100004FB01F000F002F810BD000010B5024623
:1009200042F21070B2FBF0F304480068C4180448A7
:100930000068C46000F066F810BD000014000020DC
:100940000400002010B506480068006804490968E2
:100950004968401A8410214602A0FFF777FC10BDB9
:1009600004000020617661696C61626C65207370BF
:10097000616365203A2025640A0D000000201C49AF
:100980000988491E1B4A128891420EDC18490988C1
:10099000022903DB0121174A11800BE00021154ACF
:1009A00011801549154A1160704712490988491C80
:1009B000104A11801049114A11600E49088811E04F
:1009C0000D4A02EB0011CA6822B10D4BCA681B68C0
:1009D0009A4206D80022CA60084A1160054B188066
:1009E000E2E7401C024909888842E9DB00BFDBE7F7
:1009F0000A000020080000201C080020040000203D
:100A0000140000200348006840F08050014908604D
:100A10007047000004ED00E086B01422074901A8E9
:100A2000FFF790FC00BFFFF78DFF05A0FFF70EFC5E
:100A30004FF47A70FFF768FFF5E70000A010000898
:100A40007461736B310D0A0000BFFFF77BFF04A0D8
:100A5000FFF7FCFB4FF4FA60FFF756FFF5E70000E5
:100A60007461736B320D0A0000BF03480068401CBC
:100A700001490860F9E70000180000202DE9F05F47
:100A800005460E46300100F0ABF981462E4905FBC4
:100A900001F000F0A5F98246494600F0BFF807468C
:100AA000384600F07DF984B2204600F099F983467B
:100AB000394600F075FA82464FF0834100F0A4F900
:100AC000814600F06DF980464FF6FF7000EA04148D
:100AD00004EB080084B21D48806940F004001B4903
:100AE00088610846806940F4804088611848006841
:100AF00020F47F60164908600846006840F40B60E7
:100B000008601248C06840F480401049C860084638
:100B1000C06820F48040C8600E480480001D008832
:100B200042F20C0108430B49091D08800846008861
:100B300040F0200008800223252203210846FFF709
:100B4000CBFDBDE8F09F000040420F0000100240C6
:100B5000040801400838014090EA010F48BF81F0C5
:100B6000004100F12E82421A3CBF801A89184FEAD8
:100B7000D0524FF07F4C1CEA410FA2EBD15318BF6B
:100B80009CEA026F00F03B804FF0004C4CEA0020E2
:100B90004CEA012121FA03FC10EB0C0C1ED202F1ED
:100BA000FF325FEA1C2040EBC25038BF70471CF098
:100BB0007F0F4FEA400C18BFBCF17F4F38BF704722
:100BC000C3F12003994008BF20F00100BCF17F4F22
:100BD00038BF7047A0F1C04000F0DDB94FEA3C00DB
:100BE000000A40EBC25028BF1CF0FF0F4FEA400C38
:100BF000E6D018BFBCF17F4F38BF7047EAE79CEAE8
:100C0000026F05D010EA5C0F08BF00F0004070478B
:100C100010B500F07AF900BF64FBBE3E4FF47F0CC4
:100C20001CEAD0121EBF1CEAD11392EA0C0F93EA01
:100C30000C0F00F0858090EA010F48BF42F48072EB
:100C400040F4000C41F400002CF07F4120F07F4084
:100C500000B58142A2EB03020FF2081CACEB504E30
:100C6000C0F100009EF800E04FEA4E0E00FB0EFCC3
:100C700038BF49004FEA2C1C02F5FA020CFB0EF3B8
:100C80004FEACE1E4FEA112C4FEAC1210EEB635EF4
:100C900042EB22420EFB0CFC4FEA1C5300FB0311FB
:100CA0004FEA112C4FEA01310EFB0CFC4FEADC4CF1
:100CB00000FB0C11C14228BF09184CEB03335DF84F
:100CC00004EB10EB410143EBC250B2F57C0F38BF8F
:100CD000704729D512F0F00F1CBF00F1C04000F0A2
:100CE00000407047008182838485868788898B8C49
:100CF0008D8E8F919293959697999A9C9D9FA0A285
:100D0000A3A5A7A8AAACAEB0B2B3B5B7B9BCBEC0D4
:100D1000C2C5C7C9CCCED1D4D7D9DCDFE2E6E9EC75
:100D2000F0F3F7FAFE0000004FEA400C0CF1807C73
:100D3000BCF17E4F28BF7047B0F1C04000F02BB926
:100D400090EA010F0CEAD11348BF42F48072624569
:100D500038BF634507D213F47F0F16D080EA010035
:100D600000F00040704710B500F0CFF8097EFC3E5F
:100D700000F005B880EA010000F00040704780EA0A
:100D8000010000F0004000F006B912F47F0F04BF2C
:100D90000248704780EA010000F0FDB80000C07F03
:100DA000C10DD1F19E0206DB4FEA002343F0004360
:100DB00023FA02F07047004207D54FEA4001B1F133
:100DC000FE4F02D24FF00000704710B500F09DF8C2
:100DD00049922480002070476FEA2000704700008D
:100DE000B0FA80F310FA03F2C3F19D030AD0D905DB
:100DF00001EB1220530638BF704700F1010008BF15
:100E000020F00100704700004FF47F0C1CEAD01264
:100E10001EBF1CEAD11392EA0C0F93EA0C0F00F0EC
:100E2000478090EA010F48BF42F480724FF0004CB7
:100E30004CEA00204CEA012102EB0302A0FB011363
:100E4000A2F50002002918BF43F001035B0028BF90
:100E50004FEA330342EB22425FEA132C4CEBC250C1
:100E60002EBFBCEB436FB2F57C0F70474FEA036CAB
:100E7000BCF1004F08BF20F00100B2F57C0F38BF75
:100E800070470BD582F0FF0212F5803FC8BF704754
:100E900000F1C040D8BF00F00040704700F5000CE2
:100EA0005FEA4C0C48BF7047B0F1C04000F073B827
:100EB00090EA010F0CEAD11348BF42F480726245F8
:100EC00038BF634504D280EA010000F0004070475B
:100ED00010B500F01AF800BF8900013E00F007B815
:100EE00000F009B85FEA410C5FEA1C6C08D080EAA8
:100EF000010000F050B85FEA400C5FEA1C6CF6D1CC
:100F00004FF00040A0F5800070470EF1020E2EF069
:100F1000030E5EF8044B244204D44FEA4102B2F1BE
:100F20007F4F11D84FEA4003B3F17F4F0CD80ED159
:100F30004FEAD07CB2F17F4F0CEB4C0C0CF1020C61
:100F400008BF4CEBD17C04E04FF0080C01E04FEA05
:100F5000D17C0CEB4C0324FA03F404F00704B4F145
:100F6000040C06D20EEB840CBDE810404CF0010CD2
:100F70006047DFE80CF0070802024FF00040A0F5E0
:100F8000800010BD0846420018BFD2F1807288BFB1
:100F900000F0004010BDFF2141EAD050C00570476D
:100FA00080F0004090EA010F7FF5DDAD81F0004157
:100FB00000F007B890EA010F48BF81F000413FF50B
:100FC000D2AD421A04D882F00042A0EB02001144D4
:100FD0004FEAD0524FF07F4C1CEA410FA2EBD153A5
:100FE00018BF9CEA026F4AD04FF0004C4CEA002038
:100FF0004CEA012121FA03FCB0EB0C0C0FD412F0E7
:10100000FE0F36D05FEA4C001DD5001240EBC250F7
:1010100038BF70471CF03F0F18BF70470BE0A2F1BC
:1010200001025FEA1C2040EBC25038BF70471CF041
:101030007F0F18BF7047C3F12003994014BF401EB3
:1010400020F00100704780084FEA122308BF704764
:10105000B0FA80FCA2EB0C02CCF1280C60FA0CF088
:1010600093EA122F04BF00EBC25070474FEAC370DF
:101070007047130A5FEADC1008BF7047F6E79CEA86
:10108000026F04D010EA5C0F08BF0020704710B553
:10109000FFF73BFF40DFF63E81F000407047000065
:1010A0000100000002000000030000000400000036
:1010B00005000000D4100008000000201C00000003
:1010C0006C010008F01000081C0000205C0F0000FC
:1010D000880100080000000000000000000000007F
:1010E00009000100010000000000000000000000F5
:0400000508000131BD
:00000001FF
